{
  "contractName": "Calculator",
  "abi": [
    {
      "inputs": [],
      "name": "result",
      "outputs": [
        {
          "internalType": "uint256",
          "name": "",
          "type": "uint256"
        }
      ],
      "stateMutability": "view",
      "type": "function",
      "constant": true
    },
    {
      "inputs": [
        {
          "internalType": "uint256",
          "name": "a",
          "type": "uint256"
        },
        {
          "internalType": "uint256",
          "name": "b",
          "type": "uint256"
        }
      ],
      "name": "add",
      "outputs": [],
      "stateMutability": "nonpayable",
      "type": "function"
    },
    {
      "inputs": [
        {
          "internalType": "uint256",
          "name": "a",
          "type": "uint256"
        },
        {
          "internalType": "uint256",
          "name": "b",
          "type": "uint256"
        }
      ],
      "name": "subtract",
      "outputs": [],
      "stateMutability": "nonpayable",
      "type": "function"
    },
    {
      "inputs": [
        {
          "internalType": "uint256",
          "name": "a",
          "type": "uint256"
        },
        {
          "internalType": "uint256",
          "name": "b",
          "type": "uint256"
        }
      ],
      "name": "multiply",
      "outputs": [],
      "stateMutability": "nonpayable",
      "type": "function"
    },
    {
      "inputs": [
        {
          "internalType": "uint256",
          "name": "a",
          "type": "uint256"
        },
        {
          "internalType": "uint256",
          "name": "b",
          "type": "uint256"
        }
      ],
      "name": "divide",
      "outputs": [],
      "stateMutability": "nonpayable",
      "type": "function"
    }
  ],
  "bytecode": "0x608060405234801561001057600080fd5b5061035c806100206000396000f3fe608060405234801561001057600080fd5b50600436106100575760003560e01c8063165c4a161461005c5780633ef5e445146100785780636537214714610094578063771602f7146100b2578063f88e9fbf146100ce575b600080fd5b61007660048036038101906100719190610183565b6100ea565b005b610092600480360381019061008d9190610183565b610100565b005b61009c610116565b6040516100a991906101d2565b60405180910390f35b6100cc60048036038101906100c79190610183565b61011c565b005b6100e860048036038101906100e39190610183565b610132565b005b80826100f6919061021c565b6000819055505050565b808261010c919061025e565b6000819055505050565b60005481565b80826101289190610292565b6000819055505050565b808261013e91906102f5565b6000819055505050565b600080fd5b6000819050919050565b6101608161014d565b811461016b57600080fd5b50565b60008135905061017d81610157565b92915050565b6000806040838503121561019a57610199610148565b5b60006101a88582860161016e565b92505060206101b98582860161016e565b9150509250929050565b6101cc8161014d565b82525050565b60006020820190506101e760008301846101c3565b92915050565b7f4e487b7100000000000000000000000000000000000000000000000000000000600052601160045260246000fd5b60006102278261014d565b91506102328361014d565b92508282026102408161014d565b91508282048414831517610257576102566101ed565b5b5092915050565b60006102698261014d565b91506102748361014d565b925082820390508181111561028c5761028b6101ed565b5b92915050565b600061029d8261014d565b91506102a88361014d565b92508282019050808211156102c0576102bf6101ed565b5b92915050565b7f4e487b7100000000000000000000000000000000000000000000000000000000600052601260045260246000fd5b60006103008261014d565b915061030b8361014d565b92508261031b5761031a6102c6565b5b82820490509291505056fea26469706673582212205e70eae6589621779dfa4bc8783008b26c49e8855a1b8c6477c35f0d88735e2664736f6c63430008130033",
  "immutableReferences": {},
  "source": "// SPDX-License-Identifier: MIT\npragma solidity >=0.4.22 <0.9.0;\n\ncontract Calculator {\n  uint256 public result;\n\n  function add(uint256 a, uint256 b) public {\n    result = a + b;\n  }\n\n  function subtract(uint256 a, uint256 b) public {\n    result = a - b;\n  }\n\n  function multiply(uint256 a, uint256 b) public {\n    result = a * b;\n  }\n\n  function divide(uint256 a, uint256 b) public {\n    result = a / b;\n  }\n}\n",
  "sourcePath": "/home/philou/Dev/Qwik/calculator/calculator/contracts/Calculator.sol",
  "compiler": {
    "name": "solc",
    "version": "0.8.19+commit.7dd6d404.Emscripten.clang"
  },
  "schemaVersion": "3.4.13",
  "updatedAt": "2023-05-26T13:07:07.497Z",
  "networkType": "ethereum",
  "devdoc": {
    "kind": "dev",
    "methods": {},
    "version": 1
  },
  "userdoc": {
    "kind": "user",
    "methods": {},
    "version": 1
  }
}